{
  "_format": "hh-sol-artifact-1",
  "contractName": "WavePortal",
  "sourceName": "contracts/WavePortal.sol",
  "abi": [
    {
      "inputs": [],
      "stateMutability": "payable",
      "type": "constructor"
    },
    {
      "anonymous": false,
      "inputs": [
        {
          "indexed": true,
          "internalType": "address",
          "name": "from",
          "type": "address"
        },
        {
          "indexed": false,
          "internalType": "uint256",
          "name": "timestamp",
          "type": "uint256"
        },
        {
          "indexed": false,
          "internalType": "string",
          "name": "message",
          "type": "string"
        }
      ],
      "name": "NewWave",
      "type": "event"
    },
    {
      "inputs": [],
      "name": "getAllWaves",
      "outputs": [
        {
          "components": [
            {
              "internalType": "address",
              "name": "waver",
              "type": "address"
            },
            {
              "internalType": "string",
              "name": "message",
              "type": "string"
            },
            {
              "internalType": "uint256",
              "name": "timestamp",
              "type": "uint256"
            }
          ],
          "internalType": "struct WavePortal.Wave[]",
          "name": "",
          "type": "tuple[]"
        }
      ],
      "stateMutability": "view",
      "type": "function"
    },
    {
      "inputs": [],
      "name": "getTotalWaves",
      "outputs": [
        {
          "internalType": "uint256",
          "name": "",
          "type": "uint256"
        }
      ],
      "stateMutability": "view",
      "type": "function"
    },
    {
      "inputs": [
        {
          "internalType": "address",
          "name": "",
          "type": "address"
        }
      ],
      "name": "lastWavedAt",
      "outputs": [
        {
          "internalType": "uint256",
          "name": "",
          "type": "uint256"
        }
      ],
      "stateMutability": "view",
      "type": "function"
    },
    {
      "inputs": [
        {
          "internalType": "string",
          "name": "_message",
          "type": "string"
        }
      ],
      "name": "wave",
      "outputs": [],
      "stateMutability": "nonpayable",
      "type": "function"
    }
  ],
  "bytecode": "0x60806040526200004f6040518060400160405280601a81526020017f57617665506f7274616c20536d61727420436f6e7472616374210000000000008152506200007760201b620006b91760201c565b606442446200005f91906200017c565b6200006b9190620001e6565b600181905550620002dc565b62000117816040516024016200008e9190620002b8565b6040516020818303038152906040527f41304fac000000000000000000000000000000000000000000000000000000007bffffffffffffffffffffffffffffffffffffffffffffffffffffffff19166020820180517bffffffffffffffffffffffffffffffffffffffffffffffffffffffff83818316178352505050506200011a60201b60201c565b50565b60008151905060006a636f6e736f6c652e6c6f679050602083016000808483855afa5050505050565b6000819050919050565b7f4e487b7100000000000000000000000000000000000000000000000000000000600052601160045260246000fd5b6000620001898262000143565b9150620001968362000143565b9250828201905080821115620001b157620001b06200014d565b5b92915050565b7f4e487b7100000000000000000000000000000000000000000000000000000000600052601260045260246000fd5b6000620001f38262000143565b9150620002008362000143565b925082620002135762000212620001b7565b5b828206905092915050565b600081519050919050565b600082825260208201905092915050565b60005b838110156200025a5780820151818401526020810190506200023d565b60008484015250505050565b6000601f19601f8301169050919050565b600062000284826200021e565b62000290818562000229565b9350620002a28185602086016200023a565b620002ad8162000266565b840191505092915050565b60006020820190508181036000830152620002d4818462000277565b905092915050565b61148280620002ec6000396000f3fe608060405234801561001057600080fd5b506004361061004c5760003560e01c8063449d46c0146100515780639a2cdc081461006d578063a42a46631461008b578063bd43a908146100bb575b600080fd5b61006b60048036038101906100669190610aac565b6100d9565b005b610075610505565b6040516100829190610b0e565b60405180910390f35b6100a560048036038101906100a09190610b87565b610550565b6040516100b29190610b0e565b60405180910390f35b6100c3610568565b6040516100d09190610d63565b60405180910390f35b42603c600360003373ffffffffffffffffffffffffffffffffffffffff1673ffffffffffffffffffffffffffffffffffffffff168152602001908152602001600020546101269190610db4565b10610166576040517f08c379a000000000000000000000000000000000000000000000000000000000815260040161015d90610e45565b60405180910390fd5b42600360003373ffffffffffffffffffffffffffffffffffffffff1673ffffffffffffffffffffffffffffffffffffffff1681526020019081526020016000208190555060016000808282546101bc9190610db4565b925050819055506102036040518060400160405280601681526020017f257320776176656420772f206d657373616765202573000000000000000000008152503383610752565b600260405180606001604052803373ffffffffffffffffffffffffffffffffffffffff16815260200183815260200142815250908060018154018082558091505060019003906000526020600020906003020160009091909190915060008201518160000160006101000a81548173ffffffffffffffffffffffffffffffffffffffff021916908373ffffffffffffffffffffffffffffffffffffffff16021790555060208201518160010190816102bb9190611071565b50604082015181600201555050606442446102d69190610db4565b6102e09190611172565b6001819055506103276040518060400160405280601681526020017f52616e646f6d20232067656e6572617465643a202564000000000000000000008152506001546107f1565b60326001541015610472576103716040518060400160405280600781526020017f257320576f6e21000000000000000000000000000000000000000000000000008152503361088d565b6000655af3107a40009050478111156103bf576040517f08c379a00000000000000000000000000000000000000000000000000000000081526004016103b690611215565b60405180910390fd5b60003373ffffffffffffffffffffffffffffffffffffffff16826040516103e590611266565b60006040518083038185875af1925050503d8060008114610422576040519150601f19603f3d011682016040523d82523d6000602084013e610427565b606091505b505090508061046b576040517f08c379a0000000000000000000000000000000000000000000000000000000008152600401610462906112ed565b60405180910390fd5b50506104b2565b6104b16040518060400160405280601181526020017f257320646964206e6f742077696e2e2e2e0000000000000000000000000000008152503361088d565b5b3373ffffffffffffffffffffffffffffffffffffffff167f5f7e16dc676677766a70e9c5628aa6c54ddb8b6e5188e2ae1e1f17f1ffbea71642836040516104fa929190611346565b60405180910390a250565b60006105486040518060400160405280601781526020017f5765204861766520256420746f74616c207761766573210000000000000000008152506000546107f1565b600054905090565b60036020528060005260406000206000915090505481565b60606002805480602002602001604051908101604052809291908181526020016000905b828210156106b057838290600052602060002090600302016040518060600160405290816000820160009054906101000a900473ffffffffffffffffffffffffffffffffffffffff1673ffffffffffffffffffffffffffffffffffffffff1673ffffffffffffffffffffffffffffffffffffffff16815260200160018201805461061590610e94565b80601f016020809104026020016040519081016040528092919081815260200182805461064190610e94565b801561068e5780601f106106635761010080835404028352916020019161068e565b820191906000526020600020905b81548152906001019060200180831161067157829003601f168201915b505050505081526020016002820154815250508152602001906001019061058c565b50505050905090565b61074f816040516024016106cd9190611376565b6040516020818303038152906040527f41304fac000000000000000000000000000000000000000000000000000000007bffffffffffffffffffffffffffffffffffffffffffffffffffffffff19166020820180517bffffffffffffffffffffffffffffffffffffffffffffffffffffffff8381831617835250505050610929565b50565b6107ec83838360405160240161076a939291906113a7565b6040516020818303038152906040527fe0e9ad4f000000000000000000000000000000000000000000000000000000007bffffffffffffffffffffffffffffffffffffffffffffffffffffffff19166020820180517bffffffffffffffffffffffffffffffffffffffffffffffffffffffff8381831617835250505050610929565b505050565b61088982826040516024016108079291906113ec565b6040516020818303038152906040527fb60e72cc000000000000000000000000000000000000000000000000000000007bffffffffffffffffffffffffffffffffffffffffffffffffffffffff19166020820180517bffffffffffffffffffffffffffffffffffffffffffffffffffffffff8381831617835250505050610929565b5050565b61092582826040516024016108a392919061141c565b6040516020818303038152906040527f319af333000000000000000000000000000000000000000000000000000000007bffffffffffffffffffffffffffffffffffffffffffffffffffffffff19166020820180517bffffffffffffffffffffffffffffffffffffffffffffffffffffffff8381831617835250505050610929565b5050565b60008151905060006a636f6e736f6c652e6c6f679050602083016000808483855afa5050505050565b6000604051905090565b600080fd5b600080fd5b600080fd5b600080fd5b6000601f19601f8301169050919050565b7f4e487b7100000000000000000000000000000000000000000000000000000000600052604160045260246000fd5b6109b982610970565b810181811067ffffffffffffffff821117156109d8576109d7610981565b5b80604052505050565b60006109eb610952565b90506109f782826109b0565b919050565b600067ffffffffffffffff821115610a1757610a16610981565b5b610a2082610970565b9050602081019050919050565b82818337600083830152505050565b6000610a4f610a4a846109fc565b6109e1565b905082815260208101848484011115610a6b57610a6a61096b565b5b610a76848285610a2d565b509392505050565b600082601f830112610a9357610a92610966565b5b8135610aa3848260208601610a3c565b91505092915050565b600060208284031215610ac257610ac161095c565b5b600082013567ffffffffffffffff811115610ae057610adf610961565b5b610aec84828501610a7e565b91505092915050565b6000819050919050565b610b0881610af5565b82525050565b6000602082019050610b236000830184610aff565b92915050565b600073ffffffffffffffffffffffffffffffffffffffff82169050919050565b6000610b5482610b29565b9050919050565b610b6481610b49565b8114610b6f57600080fd5b50565b600081359050610b8181610b5b565b92915050565b600060208284031215610b9d57610b9c61095c565b5b6000610bab84828501610b72565b91505092915050565b600081519050919050565b600082825260208201905092915050565b6000819050602082019050919050565b610be981610b49565b82525050565b600081519050919050565b600082825260208201905092915050565b60005b83811015610c29578082015181840152602081019050610c0e565b60008484015250505050565b6000610c4082610bef565b610c4a8185610bfa565b9350610c5a818560208601610c0b565b610c6381610970565b840191505092915050565b610c7781610af5565b82525050565b6000606083016000830151610c956000860182610be0565b5060208301518482036020860152610cad8282610c35565b9150506040830151610cc26040860182610c6e565b508091505092915050565b6000610cd98383610c7d565b905092915050565b6000602082019050919050565b6000610cf982610bb4565b610d038185610bbf565b935083602082028501610d1585610bd0565b8060005b85811015610d515784840389528151610d328582610ccd565b9450610d3d83610ce1565b925060208a01995050600181019050610d19565b50829750879550505050505092915050565b60006020820190508181036000830152610d7d8184610cee565b905092915050565b7f4e487b7100000000000000000000000000000000000000000000000000000000600052601160045260246000fd5b6000610dbf82610af5565b9150610dca83610af5565b9250828201905080821115610de257610de1610d85565b5b92915050565b600082825260208201905092915050565b7f7761697420316d00000000000000000000000000000000000000000000000000600082015250565b6000610e2f600783610de8565b9150610e3a82610df9565b602082019050919050565b60006020820190508181036000830152610e5e81610e22565b9050919050565b7f4e487b7100000000000000000000000000000000000000000000000000000000600052602260045260246000fd5b60006002820490506001821680610eac57607f821691505b602082108103610ebf57610ebe610e65565b5b50919050565b60008190508160005260206000209050919050565b60006020601f8301049050919050565b600082821b905092915050565b600060088302610f277fffffffffffffffffffffffffffffffffffffffffffffffffffffffffffffffff82610eea565b610f318683610eea565b95508019841693508086168417925050509392505050565b6000819050919050565b6000610f6e610f69610f6484610af5565b610f49565b610af5565b9050919050565b6000819050919050565b610f8883610f53565b610f9c610f9482610f75565b848454610ef7565b825550505050565b600090565b610fb1610fa4565b610fbc818484610f7f565b505050565b5b81811015610fe057610fd5600082610fa9565b600181019050610fc2565b5050565b601f82111561102557610ff681610ec5565b610fff84610eda565b8101602085101561100e578190505b61102261101a85610eda565b830182610fc1565b50505b505050565b600082821c905092915050565b60006110486000198460080261102a565b1980831691505092915050565b60006110618383611037565b9150826002028217905092915050565b61107a82610bef565b67ffffffffffffffff81111561109357611092610981565b5b61109d8254610e94565b6110a8828285610fe4565b600060209050601f8311600181146110db57600084156110c9578287015190505b6110d38582611055565b86555061113b565b601f1984166110e986610ec5565b60005b82811015611111578489015182556001820191506020850194506020810190506110ec565b8683101561112e578489015161112a601f891682611037565b8355505b6001600288020188555050505b505050505050565b7f4e487b7100000000000000000000000000000000000000000000000000000000600052601260045260246000fd5b600061117d82610af5565b915061118883610af5565b92508261119857611197611143565b5b828206905092915050565b7f547279696e6720746f207769746864726177206d6f7265206d6f6e657920746860008201527f616e2074686520636f6e74726163742068617300000000000000000000000000602082015250565b60006111ff603383610de8565b915061120a826111a3565b604082019050919050565b6000602082019050818103600083015261122e816111f2565b9050919050565b600081905092915050565b50565b6000611250600083611235565b915061125b82611240565b600082019050919050565b600061127182611243565b9150819050919050565b7f4661696c656420746f207769746864726177206d6f6e65792066726f6d20636f60008201527f6e74726163740000000000000000000000000000000000000000000000000000602082015250565b60006112d7602683610de8565b91506112e28261127b565b604082019050919050565b60006020820190508181036000830152611306816112ca565b9050919050565b600061131882610bef565b6113228185610de8565b9350611332818560208601610c0b565b61133b81610970565b840191505092915050565b600060408201905061135b6000830185610aff565b818103602083015261136d818461130d565b90509392505050565b60006020820190508181036000830152611390818461130d565b905092915050565b6113a181610b49565b82525050565b600060608201905081810360008301526113c1818661130d565b90506113d06020830185611398565b81810360408301526113e2818461130d565b9050949350505050565b60006040820190508181036000830152611406818561130d565b90506114156020830184610aff565b9392505050565b60006040820190508181036000830152611436818561130d565b90506114456020830184611398565b939250505056fea26469706673582212206f9dd564fb728a3252df7dade3590f162b1a0f8e34d0e8a4ebdfc766cb8d1e4c64736f6c63430008110033",
  "linkReferences": {},
  "deployedLinkReferences": {}
}